:020000040000FA
:100000000C9462000C948A000C948A000C948A0070
:100010000C948A000C948A000C948A000C948A0038
:100020000C948A000C948A000C948A000C948A0028
:100030000C948A000C948A000C948A000C948A0018
:100040000C9479020C948A000C94E9020C94C3027B
:100050000C948A000C948A000C948A000C948A00F8
:100060000C948A000C948A000000000025002800EF
:100070002B0000000000240027002A0000000000E0
:1000800023002600290004040404040404040202DA
:100090000202020203030303030301020408102007
:1000A0004080010204081020010204081020000012
:1000B0000008000201000003040700000000000027
:1000C0000000FD0411241FBECFEFD8E0DEBFCDBF7E
:1000D00011E0A0E0B1E0E8EFFAE002C005900D9277
:1000E000A638B107D9F722E0A6E8B1E001C01D9219
:1000F000A333B207E1F710E0C2E6D0E004C02197D5
:10010000FE010E947405C136D107C9F70E941B0386
:100110000C947A050C940000CF92DF92EF92FF923C
:100120006B017C01E091A601F091A70182E0808340
:10013000C11481EED806E104F104A1F060E079E099
:100140008DE390E0A70196010E943E052150310900
:10015000410951095695479537952795211580E115
:100160003807A8F0E091A601F091A701108260E89D
:1001700074E88EE190E0A70196010E943E052150AF
:100180003109410951095695479537952795E091D1
:10019000A201F091A3013083E091A401F091A501A7
:1001A00020831092AE01E091AA01F091AB0186E0AC
:1001B0008083E091A801F091A90180818061808312
:1001C000E091A801F091A901808188608083E0918D
:1001D000A801F091A901808180688083E091A80145
:1001E000F091A90180818F7D8083FF90EF90DF9057
:1001F000CF9008953FB7F894809192019091930128
:10020000A0919401B091950126B5A89B05C02F3F00
:1002100019F00196A11DB11D3FBFBA2FA92F982F2C
:100220008827BC01CD01620F711D811D911D42E027
:10023000660F771F881F991F4A95D1F708958F92EF
:100240009F92AF92BF92CF92DF92EF92FF924B01BB
:100250005C010E94FA006B017C010E94FA006C199B
:100260007D098E099F09683E734081059105A8F3B9
:1002700021E0821A9108A108B10888EEC80E83E037
:10028000D81EE11CF11C81149104A104B10429F7CA
:10029000FF90EF90DF90CF90BF90AF909F908F90A6
:1002A0000895AF92BF92CF92DF92EF92FF920F9399
:1002B0001F93CF93DF936C017B018B01040F151FFC
:1002C000EB015E01AE18BF08C017D10759F0699164
:1002D000D601ED91FC910190F081E02DC6010995C8
:1002E000892B79F7C501DF91CF911F910F91FF9075
:1002F000EF90DF90CF90BF90AF900895FC01538DA9
:10030000448D252F30E0842F90E0821B930B5417EF
:1003100010F0CF96089501970895FC01918D828D7C
:10032000981761F0A28DAE0FBF2FB11D5D968C9115
:10033000928D9F5F9F73928F90E008958FEF9FEF54
:100340000895FC01918D828D981731F0828DE80F10
:10035000F11D858D90E008958FEF9FEF0895FC01CA
:10036000918D228D892F90E0805C9F4F821B910997
:100370008F739927089586E991E00E94AF0121E0EB
:10038000892B09F420E0822F089580E090E0892BEA
:1003900029F00E94BB0181110C9400000895FC011A
:1003A000A48DA80FB92FB11DA35ABF4F2C91848DD6
:1003B00090E001968F739927848FA689B7892C9333
:1003C000A089B1898C91837080648C93938D848D86
:1003D000981306C00288F389E02D80818F7D808389
:1003E0000895EF92FF920F931F93CF93DF93EC0149
:1003F00081E0888F9B8D8C8D98131AC0E889F989CC
:10040000808185FF15C09FB7F894EE89FF896083CE
:10041000E889F98980818370806480839FBF81E04F
:1004200090E0DF91CF911F910F91FF90EF90089591
:10043000F62E0B8D10E00F5F1F4F0F731127E02E6C
:100440008C8D8E110CC00FB607FCFACFE889F989A4
:10045000808185FFF5CFCE010E94CF01F1CFEB8DDA
:10046000EC0FFD2FF11DE35AFF4FF0829FB7F89478
:100470000B8FEA89FB8980818062CFCFCF93DF9396
:10048000EC01888D8823B9F0AA89BB89E889F989AC
:100490008C9185FD03C0808186FD0DC00FB607FCE1
:1004A000F7CF8C9185FFF2CF808185FFEDCFCE0114
:1004B0000E94CF01E9CFDF91CF910895FC01019017
:1004C0000020E9F73197AF01481B590BBC0186E9C1
:1004D00091E00C945101CF93DF930E945E02EC01F6
:1004E00084E291E00E945E028C0F9D1FDF91CF910C
:1004F00008951F920F920FB60F9211242F933F93DE
:100500008F939F93AF93BF9380918E0190918F01B2
:10051000A0919001B091910130918D0123E0230FC2
:100520002D3758F50196A11DB11D20938D018093A3
:100530008E0190938F01A0939001B09391018091CF
:10054000920190919301A0919401B091950101962F
:10055000A11DB11D8093920190939301A0939401EA
:10056000B0939501BF91AF919F918F913F912F9142
:100570000F900FBE0F901F90189526E8230F02963C
:10058000A11DB11DD2CF1F920F920FB60F92112451
:100590002F933F934F935F936F937F938F939F938B
:1005A000AF93BF93EF93FF9386E991E00E94CF0151
:1005B000FF91EF91BF91AF919F918F917F916F913B
:1005C0005F914F913F912F910F900FBE0F901F9011
:1005D00018951F920F920FB60F9211242F938F939D
:1005E0009F93EF93FF93E091A601F091A701808183
:1005F000E091AC01F091AD0182FD1BC09081809132
:10060000AF018F5F8F732091B001821741F0E091AD
:10061000AF01F0E0EA56FE4F958F8093AF01FF9156
:10062000EF919F918F912F910F900FBE0F901F9080
:1006300018958081F4CFCF93DF93CDB7DEB7A19724
:100640000FB6F894DEBF0FBECDBF789484B582603C
:1006500084BD84B5816084BD85B5826085BD85B566
:10066000816085BD80916E00816080936E001092E4
:10067000810080918100826080938100809181005F
:1006800081608093810080918000816080938000F0
:100690008091B10084608093B1008091B00081604E
:1006A0008093B00080917A00846080937A0080917A
:1006B0007A00826080937A0080917A0081608093D2
:1006C0007A0080917A00806880937A001092C1004D
:1006D000ECE9F0E02491E8E86E2EE0E07E2EF301F4
:1006E00084918823C9F090E0880F991FFC01EE588F
:1006F000FF4FA591B491FC01E859FF4F45915491EA
:100700009FB7F8943C91822F809583238C93FA01B4
:100710008081282B20839FBFE0918601F091870183
:10072000EE0FFF1FEE0FFF1FEC5EFE4F6081718129
:10073000828193810E948C0087E291E00E946B028B
:1007400044E0C42ED12C5AE0852E912CA12CB12C42
:1007500060E0E62E60E0F62EE0EBF0E08491ECE95C
:10076000F0E09491F3012491211141C01092010114
:10077000809100018823C9F02FB7F89480918E01F1
:1007800090918F01A0919001B09191012FBF809322
:10079000890190938A01A0938B01B0938C0162E34D
:1007A00070E080E090E00E941F01809101018111C2
:1007B0003DC08091010180930001809188018111E9
:1007C0000AC08AE791E00E946B0268EE73E080E065
:1007D00090E00E941F01E114F10409F4BDCF0E94D2
:1007E000BB01882309F4B8CF0E940000B5CF88234D
:1007F00059F0833009F452C008F045C0813009F443
:1008000053C0823009F454C0E22FF0E0EE0FFF1F16
:10081000E458FF4FA591B4918C91892391E009F49C
:1008200090E090930101882309F4A2CF8091000108
:100830008111BFCF8FB7F89440918E0150918F01F5
:1008400060919001709191018FBF80918901909189
:100850008A01A0918B01B0918C01481B590B6A0B46
:100860007B0B80918801493E53406105710580F101
:1008700091E0892780938801882339F18FE391E003
:100880000E946B0296CF8730B1F08830D1F084306F
:1008900009F0BACF809180008F7D03C080918000E5
:1008A0008F7780938000B0CF84B58F7784BDACCF35
:1008B00084B58F7DFBCF8091B0008F778093B0009F
:1008C000A3CF8091B0008F7DF9CF85E591E0D8CF9F
:1008D000882309F46ECF809186019091870101965B
:1008E000B6010E942A058C019093870180938601AE
:1008F00086E991E00E943E02E091A801F091A901F1
:1009000080818F7E8083E091A801F091A901808190
:10091000877F8083E091A801F091A90180818F7782
:100920008083E091A801F091A90180818F7D80836F
:100930008091B0018093AF01000F111F000F111FB4
:10094000F801EC5EFE4F60817181828193810E948B
:100950008C008DE691E00E945E02E0918601F091AC
:100960008701EE0FFF1FEE0FFF1FEC5EFE4F208092
:1009700031804280538057FE2AC06DE286E991E0C3
:100980000E94F10122273327A901221933094409C2
:10099000550919A28E010F5D1F4FCA01B901A501AA
:1009A00094010E943E05605DF80162938F0121155C
:1009B00031054105510589F70115110519F0C801E7
:1009C0000E945E0284E291E00E945E02F2CEA201E9
:1009D000910119A28E010F5D1F4FCA01B901A50136
:1009E00094010E943E05605DF80162938F0121151C
:1009F00031054105510589F7DFCFE6E9F1E01382C2
:100A0000128288EE93E0A0E0B0E084839583A68311
:100A1000B78386E091E09183808385EC90E09587B1
:100A2000848784EC90E09787868780EC90E0918BB8
:100A3000808B81EC90E0938B828B82EC90E0958BA5
:100A4000848B86EC90E0978B868B118E128E138EA2
:100A5000148E089597FB072E16F4009407D077FDA7
:100A600009D00E94600507FC05D03EF49095819561
:100A70009F4F0895709561957F4F0895A1E21A2EBA
:100A8000AA1BBB1BFD010DC0AA1FBB1FEE1FFF1F32
:100A9000A217B307E407F50720F0A21BB30BE40B82
:100AA000F50B661F771F881F991F1A9469F76095C9
:100AB0007095809590959B01AC01BD01CF01089583
:100AC000AA1BBB1B51E107C0AA1FBB1FA617B70774
:100AD00010F0A61BB70B881F991F5A95A9F7809590
:100AE0009095BC01CD010895EE0FFF1F0590F49184
:100AF000E02D0994F894FFCF010100000000F101FE
:100B000051017E013E02AF018D01A101802500004F
:100B1000004B00000096000000E100000D0A004BB1
:100B2000686F6920646F6E67206F20746F63206444
:100B30006F20393630300044612076616F20636861
:100B40006520646F206361692064617400446120E2
:100B500074686F61742063686520646F20636169E5
:100B60002064617400546F6320646F206D6F693A74
:0E0B7000200048656C6C6F20496F5421000016
:107E0000112484B714BE81FFF0D085E080938100F7
:107E100082E08093C00088E18093C10086E0809377
:107E2000C20080E18093C4008EE0C9D0259A86E02C
:107E300020E33CEF91E0309385002093840096BBD3
:107E4000B09BFECF1D9AA8958150A9F7CC24DD24C4
:107E500088248394B5E0AB2EA1E19A2EF3E0BF2EE7
:107E6000A2D0813461F49FD0082FAFD0023811F036
:107E7000013811F484E001C083E08DD089C08234E0
:107E800011F484E103C0853419F485E0A6D080C0E4
:107E9000853579F488D0E82EFF2485D0082F10E0AE
:107EA000102F00270E291F29000F111F8ED06801E7
:107EB0006FC0863521F484E090D080E0DECF843638
:107EC00009F040C070D06FD0082F6DD080E0C81688
:107ED00080E7D80618F4F601B7BEE895C0E0D1E017
:107EE00062D089930C17E1F7F0E0CF16F0E7DF06D8
:107EF00018F0F601B7BEE89568D007B600FCFDCFD4
:107F0000A601A0E0B1E02C9130E011968C91119780
:107F100090E0982F8827822B932B1296FA010C0160
:107F200087BEE89511244E5F5F4FF1E0A038BF0790
:107F300051F7F601A7BEE89507B600FCFDCF97BE46
:107F4000E89526C08437B1F42ED02DD0F82E2BD052
:107F50003CD0F601EF2C8F010F5F1F4F84911BD097
:107F6000EA94F801C1F70894C11CD11CFA94CF0C13
:107F7000D11C0EC0853739F428D08EE10CD085E9AC
:107F80000AD08FE07ACF813511F488E018D01DD067
:107F900080E101D065CF982F8091C00085FFFCCF94
:107FA0009093C60008958091C00087FFFCCF809118
:107FB000C00084FD01C0A8958091C6000895E0E648
:107FC000F0E098E1908380830895EDDF803219F02E
:107FD00088E0F5DFFFCF84E1DECF1F93182FE3DFCA
:107FE0001150E9F7F2DF1F91089580E0E8DFEE27F6
:047FF000FF270994CA
:027FFE00040479
:00000001FF
