:100000000C946D000C9495000C9495000C94950044
:100010000C9495000C9495000C9495000C9495000C
:100020000C9495000C9495000C9495000C949500FC
:100030000C9495000C9495000C9495000C949500EC
:100040000C945C070C9495000C94CC070C94A607B8
:100050000C9495000C9495000C9495000C949500CC
:100060000C94FE070C94950032313A34383A32370A
:100070000044656320313920323032350000000001
:1000800000240027002A0000000000250028002B83
:1000900000000000002300260029000404040404DA
:1000A0000404040202020202020303030303030125
:1000B00002040810204080010204081020010204FC
:1000C00008102000000008000201000003040700DF
:1000D00000000000000000002A0911241FBECFEF1D
:1000E000D8E0DEBFCDBF23E0A4E9B1E001C01D929E
:1000F000AA31B207E1F711E0A0E0B1E0EAE8FDE1E2
:1001000002C005900D92A439B107D9F710E0CDE6F1
:10011000D0E004C02197FE010E94980DCC36D10793
:10012000C9F70E9473090C94C30E0C940000089543
:100130000895833081F028F4813099F08230A9F05D
:1001400008958730A9F08830C9F08430B1F48091E7
:1001500080008F7D03C0809180008F778093800026
:10016000089584B58F7784BD089584B58F7DFBCFC6
:100170008091B0008F778093B00008958091B00097
:100180008F7DF9CFCF93DF93282F30E0F901ED5326
:10019000FF4F8491F901E155FF4FD491F901E556E4
:1001A000FF4FC491CC23A1F081110E949900EC2F44
:1001B000F0E0EE0FFF1FEF56FF4FA591B491EC91C9
:1001C000ED2381E090E009F480E0DF91CF91089584
:1001D00080E090E0FACF1F93CF93DF93282F30E099
:1001E000F901ED53FF4F8491F901E155FF4FD4918F
:1001F000F901E556FF4FC491CC23A9F0162F8111C8
:100200000E949900EC2FF0E0EE0FFF1FE957FF4F1F
:10021000A591B4918FB7F894EC91111108C0D095C5
:10022000DE23DC938FBFDF91CF911F910895DE2BEA
:10023000F8CFCF93DF9390E0FC01E155FF4F24917D
:1002400085569F4FFC0184918823D1F090E0880F60
:10025000991FFC01E358FF4FA591B491FC01E957A8
:10026000FF4FC591D49161110EC09FB7F8948C9146
:10027000E22FE0958E238C932881E223E8839FBFB1
:10028000DF91CF9108958FB7F894EC91E22BEC9326
:100290008FBFF6CF3FB7F8948091E6019091E701C8
:1002A000A091E801B091E90126B5A89B05C02F3FB8
:1002B00019F00196A11DB11D3FBFBA2FA92F982F8C
:1002C0008827BC01CD01620F711D811D911D42E087
:1002D000660F771F881F991F4A95D1F708958F924F
:1002E0009F92AF92BF92CF92DF92EF92FF924B011B
:1002F0005C010E944A016B017C010E944A016C1959
:100300007D098E099F09683E734081059105A8F318
:1003100021E0821A9108A108B10888EEC80E83E096
:10032000D81EE11CF11C81149104A104B10429F729
:10033000FF90EF90DF90CF90BF90AF909F908F9005
:100340000895AF92BF92CF92DF92EF92FF920F93F8
:100350001F93CF93DF936C017B018B01040F151F5B
:10036000EB015E01AE18BF08C017D10759F06991C3
:10037000D601ED91FC910190F081E02DC601099527
:10038000892B79F7C501DF91CF911F910F91FF90D4
:10039000EF90DF90CF90BF90AF900895FC01538D08
:1003A000448D252F30E0842F90E0821B930B54174F
:1003B00010F0CF96089501970895FC01918D828DDC
:1003C000981761F0A28DAE0FBF2FB11D5D968C9175
:1003D000928D9F5F9F73928F90E008958FEF9FEFB4
:1003E0000895FC01918D828D981731F0828DE80F70
:1003F000F11D858D90E008958FEF9FEF0895FC012A
:10040000918D228D892F90E0805C9F4F821B9109F6
:100410008F739927089580E692E00E94FF0121E002
:10042000892B09F420E0822F089580E090E0892B49
:1004300029F00E940B0281110C9400000895FC0128
:10044000A48DA80FB92FB11DA35ABF4F2C91848D35
:1004500090E001968F739927848FA689B7892C9392
:10046000A089B1898C91837080648C93938D848DE5
:10047000981306C00288F389E02D80818F7D8083E8
:100480000895EF92FF920F931F93CF93DF93EC01A8
:1004900081E0888F9B8D8C8D98131AC0E889F9892B
:1004A000808185FF15C09FB7F894EE89FF8960832E
:1004B000E889F98980818370806480839FBF81E0AF
:1004C00090E0DF91CF911F910F91FF90EF900895F1
:1004D000F62E0B8D10E00F5F1F4F0F731127E02ECC
:1004E0008C8D8E110CC00FB607FCFACFE889F98904
:1004F000808185FFF5CFCE010E941F02F1CFEB8DE9
:10050000EC0FFD2FF11DE35AFF4FF0829FB7F894D7
:100510000B8FEA89FB8980818062CFCFCF93DF93F5
:10052000EC01888D8823B9F0AA89BB89E889F9890B
:100530008C9185FD03C0808186FD0DC00FB607FC40
:10054000F7CF8C9185FFF2CF808185FFEDCFCE0173
:100550000E941F02E9CFDF91CF9108950895209165
:10056000B501260F3327331F21323105ECF42091DA
:100570003602FC0190E080E0243069F082E00895CA
:10058000A091B5012191AC014B565E4FA40FB52F40
:10059000B11D2C930196861798F38091B501680FD1
:1005A0006093B50180E0089581E0089510923602CD
:1005B00081E0809335021092100261E082E10E9496
:1005C000EB0061E083E10E94EB00E9EBF0E0808169
:1005D0008E7F808380818D7F808388E48093B800C4
:1005E00085E48093BC0008951092EF011092EE0113
:1005F00010923D0210925F020E94D60287E990E0BD
:100600009093ED018093EC0188E990E09093EB01E9
:100610008093EA010895CF93DF9391E09093940142
:100620008823B9F0C091B800D091BA008091BC0085
:100630008A7B8093BC0060E082E10E94EB0060E076
:1006400083E10E94EB000E94D602D093BA00C093CF
:10065000B800DF91CF9108958F929F92AF92BF9291
:10066000CF92DF92EF92FF920F931F93CF93DF937E
:10067000D0915F02D13208F0D7C0182FC0915E022E
:100680000E944A016B017C018091360281116BC08E
:1006900082E080933602109335028FEF809334020C
:1006A00010923302D0933202AEE3B2E0E2E1F2E024
:1006B00080E0D81391C01092110280911102CC0FEA
:1006C000C82BC093110280911002813009F088C0BC
:1006D000109210020E944A016B017C01809111026C
:1006E0008093BB008091380290913902A0913A0228
:1006F000B0913B02892B8A2B8B2BA1F00E944A01DF
:10070000009138021091390220913A0230913B0257
:100710006C197D098E099F090617170728073907E5
:1007200008F442C08091BC0083FDD8CF85EC809353
:10073000BC000E944A016B017C018091360282302C
:1007400009F450C0809134028F3F09F46FC080914A
:100750003402803209F46CC080913402803309F491
:1007600069C084E026C08091380290913902A0913E
:100770003A02B0913B02892B8A2B8B2B09F484CF50
:100780000E944A018090380290903902A0903A026B
:10079000B0903B026C197D098E099F098616970659
:1007A000A806B90608F070CF809137020E940B03AB
:1007B00085E010923D0210925F0210923C02DF91A0
:1007C000CF911F910F91FF90EF90DF90CF90BF904E
:1007D000AF909F908F9008959D9191938F5F69CF77
:1007E00085EEA5CF8091380290913902A0913A020E
:1007F000B0913B02892B8A2B8B2B09F49ECF0E9450
:100800004A01009138021091390220913A02309148
:100810003B026C197D098E099F09061717072807E7
:10082000390708F08ACFC0CF81E0C3CF80E0C1CFC5
:1008300082E0BFCF83E0BDCF1F93CF93DF93EA0168
:10084000122FDC0111968D919C91DC01ED91FC91B0
:100850000280F381E02D0995C817D90729F4812F6B
:100860000E942C0391E0811190E0892FDF91CF91BC
:100870001F910895CF93DF93EC018B818823A1F022
:10088000888191E090933C0280935E0210923D0239
:1008900010925F0281E00E942C0391E0811190E0B0
:1008A000892FDF91CF9108950E94F40281E08B831C
:1008B000CE010E943A04982F8111E2CFF1CF089522
:1008C000E091EF018091EE01E81730F4F0E0E051A3
:1008D000FE4F808190E008958FEF9FEF08959091F3
:1008E000EF018091EE012FEF3FEF981748F4E92FC9
:1008F000F0E0E051FE4F208130E09F5F9093EF01E8
:10090000C90108958091EE019091EF01891B990B27
:100910000895CF92DF92EF92FF920F931F93CF93A0
:10092000DF937C01CB018A0120913C02222389F0D4
:10093000EB016B01C40ED51ECC15DD0569F0699184
:10094000D701ED91FC910190F081E02DC70109954F
:10095000F3CF642F0E94AF02C801DF91CF911F91A6
:100960000F91FF90EF90DF90CF900895CF93DF939A
:100970001F92CDB7DEB7698320913C022223F9F0A4
:1009800020915F02203258F021E030E0FC013383F7
:10099000228390E080E00F90DF91CF9108958091C5
:1009A0003D02E82FF0E0E25CFD4F998190838F5F7C
:1009B00080933D0280935F0281E090E0ECCF61E0A4
:1009C000CE0101960E94AF02F7CFFC01248131E0F5
:1009D00030933C0220935E0210923D0210925F021F
:1009E0008485682B8DEF92E00E94B60481E00C9420
:1009F0002C0390E080E008952F923F924F925F92F7
:100A00006F927F928F929F92AF92BF92CF92DF921E
:100A1000EF92FF920F931F93CF93DF935C011B0123
:100A20006A01F12CE12CD50114968D919C918601DF
:100A30000E191F098017910708F48C01F501D08168
:100A40000E944A012B013C0180913602811172C043
:100A5000C02F013208F0C0E2F1E0F093360221E04D
:100A6000C601801B910BE816F90608F420E02093DC
:100A700035028FEF80933402109233028C0F8093F3
:100A80003202A1E0A093110280911102DD0FD82B58
:100A9000D093110280911002813009F090C0109221
:100AA00010020E944A012B013C01809111028093A7
:100AB000BB008091380290913902A0913A02B09126
:100AC0003B02892B8A2B8B2BA1F00E944A0120919B
:100AD00038023091390240913A0250913B02641938
:100AE000750986099709261737074807590708F433
:100AF00042C08091BC0083FDD8CFB5ECB093BC0060
:100B00000E944A012B013C0180913602813009F498
:100B10005AC0809133028C1710F4C0913302A2E1C5
:100B2000B2E0E0EFF1E080E08C1751F19D919193FC
:100B30008F5FFACF8091380290913902A0913A02EA
:100B4000B0913B02892B8A2B8B2B09F47DCF0E941D
:100B50004A01209138023091390240913A02509175
:100B60003B02641975098609970926173707480754
:100B7000590708F069CF809137020E940B03C0E04B
:100B80001092EF01C093EE01C017110609F057C093
:100B900041018E0C9F1CE401CE0188199909801730
:100BA000910798F5D50111968D919C91DC01ED91FD
:100BB000FC910284F385E02D09958993EDCFE5EE54
:100BC000E093BC009DCF8091380290913902A091B2
:100BD0003A02B0913B02892B8A2B8B2B09F494CFDC
:100BE0000E944A01209138023091390240913A0224
:100BF00050913B0264197509860997092617370732
:100C00004807590708F080CFB6CFE00EF11EEC146C
:100C1000FD0408F408CF81E0DF91CF911F910F917F
:100C2000FF90EF90DF90CF90BF90AF909F908F900C
:100C30007F906F905F904F903F902F90089580E04D
:100C4000EBCF0F931F93CF938C01C62F0E94E50427
:100C50006C2F6460C8010E94E5046C2F6B7FC80193
:100C60000E94E50483EC90E00197F1F7CF911F918A
:100C70000F9108950F931F93CF93DF938C01D62F7D
:100C8000C42F607F642B0E94210680E1D89FB001B1
:100C900011246C2BC801DF91CF911F910F910C94FF
:100CA0002106CF93DF93CDB7DEB728970FB6F89420
:100CB000DEBF0FBECDBF98E0E6E0F1E0DE011196A9
:100CC00001900D929A95E1F790911103961708F40F
:100CD0006FEF262F30E0220F331F41E050E04C0F22
:100CE0005D1F240F351FF9016081680F606840E0C7
:100CF00089E093E028960FB6F894DEBF0FBECDBF13
:100D0000DF91CF910C943A0640E061E089E093E0F6
:100D10000E943A068BE39FE10197F1F7809112035D
:100D2000882321F060E080E00C945106089541E0B2
:100D30000E943A0681E090E008958F929F92AF92D0
:100D4000BF920F931F93CF93DF93CDB7DEB7A197D9
:100D50000FB6F894DEBF0FBECDBF19A2423008F423
:100D60004AE08E010F5D1F4F842E912CB12CA12CD7
:100D7000A50194010E94760DE62FB901CA01EA305F
:100D800044F5E05DD801EE938D01232B242B252B18
:100D900079F790E080E0109769F0FD010190002064
:100DA000E9F73197AF014A1B5B0BBD0189E093E086
:100DB0000E94A101A1960FB6F894DEBF0FBECDBF71
:100DC000DF91CF911F910F91BF90AF909F908F9027
:100DD0000895E95CD7CFCF92DF92EF92FF926C013A
:100DE0008AE0C816D10434F441E060E389E093E07E
:100DF0000E943A060D2C000CEE08FF084AE0C701DD
:100E0000B601F7FE0EC041E06DE289E093E00E947A
:100E10003A0666277727CB016C197D098E099F0951
:100E20004AE0FF90EF90DF90CF900C949D06FC017C
:100E300001900020E9F73197AF01481B590BBC0125
:100E400089E093E00C94A10185ED8093BC00809132
:100E5000380290913902A0913A02B0913B02079674
:100E6000A11DB11D23E0B695A795979587952A9565
:100E7000D1F72091BC0024FD03C0109236020895E2
:100E8000409138025091390260913A0270913B02D0
:100E9000452B462B472B69F30097A105B10541F07F
:100EA0002AE22A95F1F700C00197A109B109E1CF23
:100EB000809137020C940B031F920F920FB60F9282
:100EC00011242F933F938F939F93AF93BF93809160
:100ED000E2019091E301A091E401B091E50130912C
:100EE000E10123E0230F2D3758F50196A11DB11D17
:100EF0002093E1018093E2019093E301A093E40148
:100F0000B093E5018091E6019091E701A091E8019D
:100F1000B091E9010196A11DB11D8093E601909366
:100F2000E701A093E801B093E901BF91AF919F91D0
:100F30008F913F912F910F900FBE0F901F9018959A
:100F400026E8230F0296A11DB11DD2CF1F920F924A
:100F50000FB60F9211242F933F934F935F936F938C
:100F60007F938F939F93AF93BF93EF93FF9380E60D
:100F700092E00E941F02FF91EF91BF91AF919F916C
:100F80008F917F916F915F914F913F912F910F9032
:100F90000FBE0F901F9018951F920F920FB60F92D1
:100FA00011242F938F939F93EF93FF93E0917002FF
:100FB000F09171028081E0917602F091770282FDDA
:100FC0001BC09081809179028F5F8F7320917A028C
:100FD000821741F0E0917902F0E0E05AFD4F958FE1
:100FE00080937902FF91EF919F918F912F910F90B4
:100FF0000FBE0F901F9018958081F4CF1F920F9213
:101000000FB60F9211242F933F934F935F936F93DB
:101010007F938F939F93AF93BF93EF93FF938091B1
:10102000B900887F803609F44AC0F0F5883209F4A7
:10103000A7C018F5803109F49BC0B8F4882309F4DF
:10104000F9C0883009F494C0FF91EF91BF91AF913E
:101050009F918F917F916F915F914F913F912F91D0
:101060000F900FBE0F901F901895883109F488C01B
:10107000803251F78093340214C0803409F49DC04B
:1010800040F48033B9F38833F9F68093340285EC69
:10109000B0C0803509F485C0883509F496C088341D
:1010A00099F60E942407D0CF883909F48CC038F50E
:1010B000883729F050F4883611F0803729F683E01C
:1010C000809336021092D70157C0883809F47BC04C
:1010D000803919F0803809F0B7CF8091D70180327C
:1010E00008F071C0E091D70181E08E0F8093D701A5
:1010F0008091BB00F0E0E954FE4F80833DC0803B0F
:1011000039F0E0F4803A09F479C0883A09F09CCFCC
:1011100084E0809336021092B6011092B501E091FE
:10112000EC01F091ED0109958091B50181110FC09D
:1011300081E08093B5011092950109C0803C09F4CB
:10114000A6CF883C09F4A3CF883B09F07DCFE0917E
:10115000B60181E08E0F8093B601F0E0EB56FE4FB2
:1011600080818093BB009091B6018091B50129C028
:10117000809111028093BB0085EC8093BC0064CF0A
:101180009091330280913202981758F5E091330222
:1011900081E08E0F80933302F0E0EE5EFD4F8081A0
:1011A000E9CFE091330281E08E0F8093330280918A
:1011B000BB00F0E0EE5EFD4F8083909133028091A2
:1011C00032029817C8F285E8D8CFE091330281E067
:1011D0008E0F809333028091BB00F0E0EE5EFD4FF6
:1011E00080838091350281115CCF81E08093100271
:1011F00084EA8093BC001092360226CF85EC80935F
:10120000BC00109236028091D701803230F4E09118
:10121000D701F0E0E954FE4F10826091D70170E0F1
:10122000E091EA01F091EB0187EB91E009951092D2
:10123000D7010ACF1092340234CFFC019081905331
:101240009A3008F090E0818180532AE0929F800DCF
:1012500011240895E0E6F2E01382128288EE93E012
:10126000A0E0B0E084839583A683B78322E131E0D8
:101270003183208325EC30E03587248724EC30E06F
:101280003787268720EC30E0318B208B21EC30E053
:10129000338B228B22EC30E0358B248B26EC30E034
:1012A000378B268B118E128E138E148EEDEFF2E09B
:1012B0001382128284839583A683B78384E291E0AC
:1012C00091838083E9E0F3E01382128286E391E068
:1012D00091838083118687E2848380E1828782E024
:1012E000838714860895CF93DF93CDB7DEB72D970C
:1012F0000FB6F894DEBF0FBECDBF789484B5826080
:1013000084BD84B5816084BD85B5826085BD85B5A9
:10131000816085BD80916E00816080936E00109227
:1013200081008091810082608093810080918100A2
:101330008160809381008091800081608093800033
:101340008091B10084608093B1008091B000816091
:101350008093B00080917A00846080937A008091BD
:101360007A00826080937A0080917A008160809315
:101370007A0080917A00806880937A001092C10090
:10138000E0917002F091710282E08083E0916C0242
:10139000F0916D021082E0916E02F0916F028FEC7D
:1013A000808310927802E0917402F091750286E0D9
:1013B0008083E0917202F09173028081806180836A
:1013C000E0917202F0917302808188608083E091E5
:1013D0007202F0917302808180688083E0917202D2
:1013E000F091730280818F7D808360E082E00E94B3
:1013F000190160E083E00E94190160E085E00E942D
:10140000190160E086E00E94190161E084E00E9419
:10141000190160E084E00E94EB000E94F402109247
:101420000E0380911403823018F098E090930E031D
:101430008093110362E370E080E090E00E946F010E
:101440006091150389E093E00E94E50468EE73E083
:1014500080E090E00E946F0160E389E093E00E94E9
:101460002106BBE4EB2EB6E4FB2EC7010197F1F792
:1014700060E389E093E00E942106C7010197F1F73C
:1014800060E389E093E00E94210683E592E0019702
:10149000F1F760E289E093E00E94210660910E037B
:1014A000606240E089E093E00E943A0684E0809325
:1014B0000F0340E06CE089E093E00E943A060E944E
:1014C000840682E08093100340E066E089E093E0C8
:1014D0000E943A0640E062E089E093E00E943A060A
:1014E0008BE39FE10197F1F788E08093150360E0BB
:1014F00089E093E00E94E5048091DF019091E00192
:10150000009711F00E943A0E86E090E00E949E0D36
:101510007C0188E6F70180838DEF92E092838183DE
:10152000138280E290E095838483F092E001E09260
:10153000DF010E94F40201E0F7010383C7010E946A
:101540003A04811108C060E00E9451068EE391E0E8
:101550000E941707FFCF1C868091DF019091E00168
:10156000FC0124813581232B89F0208100933C02EA
:1015700020935E0210923D0210925F0221E041E052
:1015800050E0BE01645F7F4F0E941C0441E050E0C8
:10159000CE0101966C01BC018091DF019091E001C8
:1015A0000E94FC04898190E0880F892F881F990B85
:1015B000892B09F4A4C04BE050E061E770E0C6015C
:1015C0000E94610DCE010A960E941D09082FE98133
:1015D000E154E33118F50E2E000CFF0BEE50F54FE1
:1015E0000C94980D2F0C0E0B0E0B430C0E0B450C90
:1015F0000E0B0E0B0E0B050B0E0B0E0B360C410CCF
:101600003F0C0E0B0E0B0E0B3D0C8A8111E0813648
:1016100029F08B8116E08E3609F017E0CE01059691
:101620000E941D09F82E48E050E068E670E0C6010F
:101630000E94610DC6010E941D09E82ECE0104968C
:101640000E941D09B82ECE0107960E941D09382F51
:1016500086E0F60111928A95E9F72AE0832F622F3E
:101660000E946A0D982F880F890F880F830F8A8335
:101670008B2D0E946A0D982F880F890F880F8B0D74
:101680008B838E2D0E946A0D982F880F890F880FEB
:101690008E0D8C838F2D0E946A0D982F880F890FD5
:1016A000880F8F0D8E83812F0E946A0D982F990FBE
:1016B000890F880F180F1F83802F0E946A0D982FA3
:1016C000880F890F880F800F88878091DF019091A4
:1016D000E001FC01248135812830310580F0208132
:1016E00031E030933C0220935E0210923D02109252
:1016F0005F0221E048E050E0B6010E941C0460E077
:10170000462E60E0562E7BE3672E712CE7E1AE2E6D
:10171000B12CF2E08F2E912C19820091DF011091F3
:10172000E001F80184819581892BC9F08081F1E085
:10173000F0933C0280935E0210923D0210925F0291
:1017400020E041E050E0B601C8010E941C0488235B
:1017500031F047E050E0B601C8010E94FC04298046
:101760003A808B818D8782E00E94C2008C010197B4
:1017700091F4E090DD01F090DE0168EC70E080E033
:1017800090E00E946F01EF2831F41093DE01009386
:10179000DD010E94840686E00E94C2000197A1F448
:1017A0000091DD011091DE0168EC70E080E090E0D6
:1017B0000E946F010130110509F069C09092DE01AD
:1017C0008092DD010E9484068091DD019091DE010E
:1017D0008130910509F082C083E00E94C200019728
:1017E00099F48091DB019091DC010196883191059B
:1017F0000CF06AC09093DC018093DB0168EC70E030
:1018000080E090E00E946F0185E00E94C200019795
:1018100089F48091DB019091DC01019797FD59C01B
:101820009093DC018093DB0168EC70E080E090E055
:101830000E946F0160E080E00E94510684E891E020
:101840000E94170761E086E00E94510680E891E05F
:101850000E9417078091DB019091DC018BC08B8186
:1018600014E0823709F4DACE18E0D8CE8B8113E089
:10187000823709F4D3CE15E0D1CE19E0CFCE1AE0ED
:10188000CDCE1BE0CBCE1CE0C9CE12E0C7CE8091FE
:10189000DD019091DE010230110509F07CC010924B
:1018A000DE011092DD010E94840660E080E00E946B
:1018B000510681E591E00E94170768EE73E080E031
:1018C00090E00E946F017ECF1092DC011092DB014C
:1018D00095CFB092DC01A092DB01A6CF82309105BA
:1018E00009F059C083E00E94C200019799F48091E9
:1018F000D9019091DA0101968C3391050CF041C029
:101900009093DA018093D90168EC70E080E090E078
:101910000E946F0185E00E94C200019789F48091C6
:10192000D9019091DA01019797FD30C09093DA01C7
:101930008093D90168EC70E080E090E00E946F0134
:1019400060E080E00E94510680E791E00E94170766
:1019500061E086E00E9451068091DB019091DC01FC
:101960000E94EB068FE791E00E9417078091D90152
:101970009091DA010E94EB0682E891E00E9417073D
:1019800094C01092DA011092D901BECF7092DA01A0
:101990006092D901CFCF892B09F087C0222D2F77F4
:1019A000822F90E034E0959587953A95E1F7982F4E
:1019B000990F990F282E291A220C220E60E080E040
:1019C0000E94510681E691E00E9417079D85E92E4D
:1019D000F12C44E0F594E7944A95E1F78E2D880FB9
:1019E000880FE81AEE0CE90EF12CC7010E94EB06F5
:1019F0008DE791E00E941707032D10E054E0159544
:101A000007955A95E1F7802F880F880F081B000F64
:101A1000030D10E0C8010E94EB068DE791E00E94E3
:101A20001707822D90E00E94EB0661E080E00E94A3
:101A3000510688E691E00E9417078091DB019091A2
:101A4000DC010E94EB068DE791E00E941707809170
:101A5000D9019091DA010E94EB068091DB0190910F
:101A6000DC01E816F90661F48091D9019091DA0160
:101A70000817190729F4211003C0E1E0E093D80109
:101A80008091D801882369F061E084E00E94EB0036
:101A90008091D9019091DA010817190731F010925D
:101AA000D80160E084E00E94EB004114510409F485
:101AB00033CE0E940B02882309F42ECE0E94000030
:101AC0002BCEFB01DC0102C005900D92415050402D
:101AD000D8F70895991B79E004C0991F961708F06C
:101AE000961B881F7A95C9F780950895A1E21A2E52
:101AF000AA1BBB1BFD010DC0AA1FBB1FEE1FFF1FB2
:101B0000A217B307E407F50720F0A21BB30BE40B01
:101B1000F50B661F771F881F991F1A9469F7609548
:101B20007095809590959B01AC01BD01CF01089502
:101B3000EE0FFF1F0590F491E02D09940F931F9372
:101B4000CF93DF938230910510F482E090E0E09132
:101B50001803F091190330E020E0B0E0A0E03097E6
:101B600099F42115310509F44AC0281B390B24309A
:101B70003105D8F58A819B816115710589F1FB01D9
:101B800093838283FE0111C04081518102811381C0
:101B900048175907E0F04817590799F4109761F072
:101BA00012960C93129713961C933296CF01DF91E5
:101BB000CF911F910F91089500931803109319036B
:101BC000F4CF2115310551F04217530738F0A90120
:101BD000DB019A01BD01DF01F801C1CFEF01F9CFAF
:101BE0009093190380931803CDCFFE01E20FF31FEA
:101BF000819391932250310939832883D7CF209143
:101C0000160330911703232B41F4209102013091E8
:101C100003013093170320931603209100013091A4
:101C200001012115310541F42DB73EB74091040162
:101C300050910501241B350BE0911603F091170319
:101C4000E217F307A0F42E1B3F0B2817390778F093
:101C5000AC014E5F5F4F2417350748F04E0F5F1FF2
:101C60005093170340931603819391939FCFF0E015
:101C7000E0E09CCFCF93DF930097E9F0FC0132972F
:101C800013821282A0911803B0911903ED0130E084
:101C900020E01097A1F420813181820F931F2091C1
:101CA0001603309117032817390709F061C0F09324
:101CB0001703E0931603DF91CF910895EA01CE1741
:101CC000DF07E8F54A815B819E0141155105B1F7B7
:101CD000E901FB83EA8349915991C40FD51FEC17A1
:101CE000FD0761F4808191810296840F951FE901BF
:101CF00099838883828193819B838A83F0E0E0E0EB
:101D000012968D919C9113970097B9F52D913C9166
:101D10001197CD010296820F931F209116033091E7
:101D200017032817390739F6309751F51092190320
:101D300010921803B0931703A0931603BCCFD3835C
:101D4000C28340815181840F951FC817D90761F460
:101D50004E5F5F4F88819981480F591F518340839F
:101D60008A819B81938382832115310509F0B0CF4D
:101D7000F0931903E09318039ECFFD01DC01C0CF5F
:0A1D800013821282D7CFF894FFCF30
:101D8A0000001A0380000000400014005400000004
:101D9A0000004102A101CE018E02FF01DD01F10125
:101DAA0000000000B6048904F9045F0482046F0489
:101DBA006004000000009706A101F904AE024B6816
:101DCA006F6E672074696D2074686179205254437C
:101DDA00004461204C75752042616F205468756318
:101DEA000054696D653A2000416C61726D3A2000B9
:101DFA0053657420416C61726D204D494E3A003A28
:101E0A005B005D0053657420416C61726D20484F20
:041E1A0055523A00E3
:00000001FF
