:020000040000FA
:100000000C9462000C948A000C948A000C948A0070
:100010000C948A000C948A000C948A000C948A0038
:100020000C948A000C948A000C948A000C948A0028
:100030000C948A000C948A000C948A000C948A0018
:100040000C947A060C948A000C948A000C948A0012
:100050000C948A000C948A000C948A000C948A00F8
:100060000C94C4060C948A000000000023002600B3
:10007000290000000000240027002A0000000000E2
:10008000250028002B0004040404040404040202D4
:100090000202020203030303030301020408102007
:1000A0004080010204081020010204081020000012
:1000B0000008000201000003040700000000000027
:1000C0000000E30711241FBECFEFD8E0DEBFCDBF95
:1000D00022E0AAE7B1E001C01D92A036B207E1F725
:1000E00011E0A0E0B1E0E2E8F9E102C005900D9274
:1000F000AA37B107D9F710E0C2E6D0E004C02197D3
:10010000FE010E94940BC136D107C9F70E94040872
:100110000C94BF0C0C94000008950895833081F076
:1001200028F4813099F08230A9F008958730A9F041
:100130008830C9F08430B1F4809180008F7D03C095
:10014000809180008F7780938000089584B58F77A9
:1001500084BD089584B58F7DFBCF8091B0008F77EB
:100160008093B00008958091B0008F7DF9CF1F93E8
:10017000CF93DF93282F30E0F901E255FF4F8491B0
:10018000F901E656FF4FD491F901EA57FF4FC491A8
:10019000CC23A9F0162F81110E948E00EC2FF0E0E5
:1001A000EE0FFF1FE458FF4FA591B4918FB7F8945D
:1001B000EC91111108C0D095DE23DC938FBFDF9145
:1001C000CF911F910895DE2BF8CFCF93DF9390E06E
:1001D000FC01E656FF4F24918A579F4FFC01849102
:1001E0008823D1F090E0880F991FFC01EE58FF4F53
:1001F000A591B491FC01E458FF4FC591D4916230B0
:1002000071F49FB7F8943C91822F809583238C934F
:10021000E8812E2B28839FBFDF91CF9108958FB760
:10022000F894EC912E2B2C938FBFF6CF3FB7F89418
:100230008091C9019091CA01A091CB01B091CC01EC
:1002400026B5A89B05C02F3F19F00196A11DB11D31
:100250003FBFBA2FA92F982F8827BC01CD01620F6D
:10026000711D811D911D42E0660F771F881F991F28
:100270004A95D1F708958F929F92AF92BF92CF92F5
:10028000DF92EF92FF924B015C010E9416016B011D
:100290007C010E9416016C197D098E099F09683E38
:1002A000734081059105A8F321E0821A9108A10805
:1002B000B10888EEC80E83E0D81EE11CF11C811441
:1002C0009104A104B10429F7FF90EF90DF90CF9043
:1002D000BF90AF909F908F900895AF92BF92CF92B2
:1002E000DF92EF92FF920F931F93CF93DF936C01F6
:1002F0007B018B01040F151FEB015E01AE18BF08D7
:10030000C017D10759F06991D601ED91FC91019088
:10031000F081E02DC6010995892B79F7C501DF91A0
:10032000CF911F910F91FF90EF90DF90CF90BF90F2
:10033000AF9008950895FC01908190539A3008F091
:1003400090E0818180532AE0929F800D11240895CE
:1003500020919B01260F3327331F21323105ECF406
:1003600020911902FC0190E080E0243069F082E0E5
:100370000895A0919B012191AC0145585E4FA40FB7
:10038000B52FB11D2C930196861798F380919B0190
:10039000680F60939B0180E0089581E008951092BA
:1003A000190281E0809318021092F30161E082E16A
:1003B0000E94B70061E083E10E94B700E9EBF0E042
:1003C00080818E7F808380818D7F808388E480938D
:1003D000B80085E48093BC0008951092D201109279
:1003E000D10110922002109242020E94CF018CE8AB
:1003F00090E09093D0018093CF018DE890E09093AE
:10040000CE018093CD010895CF93DF9391E0909337
:100410007A018823B9F0C091B800D091BA008091D8
:10042000BC008A7B8093BC0060E082E10E94B70040
:1004300060E083E10E94B7000E94CF01D093BA0030
:10044000C093B800DF91CF9108958F929F92AF92A1
:10045000BF92CF92DF92EF92FF920F931F93CF93B1
:10046000DF93D0914202D13208F0D7C0182FC0914B
:1004700041020E9416016B017C01809119028111D9
:100480006BC082E080931902109318028FEF809363
:10049000170210921602D0931502A1E2B2E0E5EF26
:1004A000F1E080E0D81391C01092F4018091F40142
:1004B000CC0FC82BC093F4018091F301813009F077
:1004C00088C01092F3010E9416016B017C0180919B
:1004D000F4018093BB0080911B0290911C02A091BB
:1004E0001D02B0911E02892B8A2B8B2BA1F00E943A
:1004F000160100911B0210911C0220911D023091E7
:100500001E026C197D098E099F0906171707280717
:10051000390708F442C08091BC0083FDD8CF85EC38
:100520008093BC000E9416016B017C01809119022E
:10053000823009F450C0809117028F3F09F46FC0D8
:1005400080911702803209F46CC0809117028033C9
:1005500009F469C084E026C080911B0290911C02BE
:10056000A0911D02B0911E02892B8A2B8B2B09F4BE
:1005700084CF0E94160180901B0290901C02A090D4
:100580001D02B0901E026C197D098E099F09861606
:100590009706A806B90608F070CF80911A020E944B
:1005A000040285E0109220021092420210921F0273
:1005B000DF91CF911F910F91FF90EF90DF90CF903F
:1005C000BF90AF909F908F9008959D9191938F5F72
:1005D00069CF85EEA5CF80911B0290911C02A0915E
:1005E0001D02B0911E02892B8A2B8B2B09F49ECF02
:1005F0000E94160100911B0210911C0220911D0205
:1006000030911E026C197D098E099F090617170784
:100610002807390708F08ACFC0CF81E0C3CF80E038
:10062000C1CF82E0BFCF83E0BDCF1F93CF93DF93D5
:10063000EA01122FDC0111968D919C91DC01ED9164
:10064000FC910280F381E02D0995C817D90729F4A0
:10065000812F0E94250291E0811190E0892FDF9186
:10066000CF911F910895CF93DF93EC018B81882365
:10067000A1F0888191E090931F0280934102109233
:1006800020021092420281E00E94250291E0811135
:1006900090E0892FDF91CF9108950E94ED0181E0D4
:1006A0008B83CE010E943303982F8111E2CFF1CFCB
:1006B0000895E091D2018091D101E81730F4F0E083
:1006C000ED52FE4F808190E008958FEF9FEF0895E7
:1006D0009091D2018091D1012FEF3FEF981748F40C
:1006E000E92FF0E0ED52FE4F208130E09F5F9093C4
:1006F000D201C90108958091D1019091D201891B45
:10070000990B0895CF92DF92EF92FF920F931F9370
:10071000CF93DF937C01CB018A0120911F0222231A
:1007200089F0EB016B01C40ED51ECC15DD0569F017
:100730006991D701ED91FC910190F081E02DC70105
:100740000995F3CF642F0E94A801C801DF91CF91D2
:100750001F910F91FF90EF90DF90CF900895CF936E
:10076000DF931F92CDB7DEB7698320911F0222234A
:10077000F9F020914202203258F021E030E0FC01F3
:100780003383228390E080E00F90DF91CF91089532
:1007900080912002E82FF0E0EF5DFD4F998190837A
:1007A0008F5F809320028093420281E090E0ECCF43
:1007B00061E0CE0101960E94A801F7CFFC012481DF
:1007C00031E030931F0220934102109220021092D8
:1007D00042028485682B83E492E00E94AF0381E0AB
:1007E0000C94250290E080E00895CF93DF939C0164
:1007F000FC01E255FF4F8491F901E656FF4FD49179
:10080000F901EA57FF4FC491C1110AC068EC70E0CA
:1008100080E090E00E943B0181E0DF91CF9108955C
:1008200081110E948E00EC2FF0E0EE0FFF1FE859BF
:10083000FF4FA591B491EC91ED2341F380E0EDCF12
:100840002F923F924F925F926F927F928F929F92E0
:10085000AF92BF92CF92DF92EF92FF920F931F93CE
:10086000CF93DF935C011B016A01F12CE12CD501D0
:1008700014968D919C9186010E191F09801791077E
:1008800008F48C01F501D0810E9416012B013C0176
:1008900080911902811172C0C02F013208F0C0E2AC
:1008A000F1E0F093190221E0C601801B910BE816DC
:1008B000F90608F420E0209318028FEF80931702C6
:1008C000109216028C0F80931502A1E0A093F40100
:1008D0008091F401DD0FD82BD093F4018091F301C6
:1008E000813009F090C01092F3010E9416012B0193
:1008F0003C018091F4018093BB0080911B02909198
:100900001C02A0911D02B0911E02892B8A2B8B2BF9
:10091000A1F00E94160120911B0230911C0240910F
:100920001D0250911E026419750986099709261740
:1009300037074807590708F442C08091BC0083FD7F
:10094000D8CFB5ECB093BC000E9416012B013C013E
:1009500080911902813009F45AC0809116028C17D7
:1009600010F4C0911602A5EFB1E0E3EDF1E080E0F4
:100970008C1751F19D9191938F5FFACF80911B025B
:1009800090911C02A0911D02B0911E02892B8A2B0E
:100990008B2B09F47DCF0E94160120911B02309110
:1009A0001C0240911D0250911E02641975098609AE
:1009B0009709261737074807590708F069CF80912C
:1009C0001A020E940402C0E01092D201C093D10129
:1009D000C017110609F057C041018E0C9F1CE4019D
:1009E000CE01881999098017910798F5D5011196BC
:1009F0008D919C91DC01ED91FC910284F385E02DB9
:100A000009958993EDCFE5EEE093BC009DCF8091F1
:100A10001B0290911C02A0911D02B0911E02892B15
:100A20008A2B8B2B09F494CF0E94160120911B0274
:100A300030911C0240911D0250911E0264197509EB
:100A400086099709261737074807590708F080CF06
:100A5000B6CFE00EF11EEC14FD0408F408CF81E0DF
:100A6000DF91CF911F910F91FF90EF90DF90CF908A
:100A7000BF90AF909F908F907F906F905F904F90BE
:100A80003F902F90089580E0EBCF0F931F93CF936B
:100A90008C01C62F0E94DE036C2F6460C8010E9487
:100AA000DE036C2F6B7FC8010E94DE0383EC90E0B5
:100AB0000197F1F7CF911F910F9108950F931F9315
:100AC000CF93DF938C01D62FC42F607F642B0E94BD
:100AD000450580E1D89FB00111246C2BC801DF913E
:100AE000CF911F910F910C944505CF93DF93CDB714
:100AF000DEB728970FB6F894DEBF0FBECDBF98E0E3
:100B0000E9E0F1E0DE01119601900D929A95E1F78E
:100B100090915702981708F48FEF90E0880F991F73
:100B200021E030E02C0F3D1F820F931FFC016081FC
:100B3000606840E08FE492E028960FB6F894DEBF3C
:100B40000FBECDBFDF91CF910C945E0540E061E018
:100B50008FE492E00E945E058BE39FE10197F1F73D
:100B600080915802882319F080E00C94750508954F
:100B700041E00E945E0581E090E008958F929F928F
:100B8000AF92BF920F931F93CF93DF93CDB7DEB792
:100B9000A1970FB6F894DEBF0FBECDBF19A24230A9
:100BA00008F44AE08E010F5D1F4F842E912CB12C6A
:100BB000A12CA50194010E945E0BE62FB901CA0188
:100BC000EA3044F5E05DD801EE938D01232B242B10
:100BD000252B79F790E080E0109769F0FD010190F6
:100BE0000020E9F73197AF014A1B5B0BBD018FE491
:100BF00092E00E946D01A1960FB6F894DEBF0FBE81
:100C0000CDBFDF91CF911F910F91BF90AF909F907B
:100C10008F900895E95CD7CFCF92DF92EF92FF9249
:100C20006C01990FEE08FF08F7FE16C041E06DE277
:100C30008FE492E00E945E0566277727CB016C194E
:100C40007D098E099F094AE00E94BE050196FF902A
:100C5000EF90DF90CF9008954AE0C701B601FF9072
:100C6000EF90DF90CF900C94BE05FC010190002026
:100C7000E9F73197AF01481B590BBC018FE492E0B3
:100C80000C946D0185ED8093BC0080911B029091C6
:100C90001C02A0911D02B0911E020796A11DB11D5C
:100CA00023E0B695A795979587952A95D1F720913A
:100CB000BC0024FD03C010921902089540911B024C
:100CC00050911C0260911D0270911E02452B462B13
:100CD000472B69F30097A105B10541F02AE22A9557
:100CE000F1F700C00197A109B109E1CF80911A0283
:100CF0000C9404021F920F920FB60F9211242F939F
:100D00003F938F939F93AF93BF938091C501909131
:100D1000C601A091C701B091C8013091C40123E080
:100D2000230F2D3758F50196A11DB11D2093C40145
:100D30008093C5019093C601A093C701B093C801E9
:100D40008091C9019091CA01A091CB01B091CC01D1
:100D50000196A11DB11D8093C9019093CA01A09372
:100D6000CB01B093CC01BF91AF919F918F913F91F7
:100D70002F910F900FBE0F901F90189526E8230F0C
:100D80000296A11DB11DD2CF1F920F920FB60F92E6
:100D900011242F933F934F935F936F937F938F9380
:100DA0009F93AF93BF93EF93FF938091B900887F98
:100DB000803609F44AC0F0F5883209F4A7C018F566
:100DC000803109F49BC0B8F4882309F4F9C0883055
:100DD00009F494C0FF91EF91BF91AF919F918F91D2
:100DE0007F916F915F914F913F912F910F900FBE27
:100DF0000F901F901895883109F488C0803251F700
:100E00008093170214C0803409F49DC040F48033ED
:100E1000B9F38833F9F68093170285ECB0C08035BA
:100E200009F485C0883509F496C0883499F60E9483
:100E30004206D0CF883909F48CC038F5883729F0BC
:100E400050F4883611F0803729F683E08093190238
:100E50001092BD0157C0883809F47BC0803919F061
:100E6000803809F0B7CF8091BD01803208F071C0A1
:100E7000E091BD0181E08E0F8093BD018091BB00A8
:100E8000F0E0E356FE4F80833DC0803B39F0E0F454
:100E9000803A09F479C0883A09F09CCF84E08093C5
:100EA000190210929C0110929B01E091CF01F091E8
:100EB000D001099580919B0181110FC081E0809341
:100EC0009B0110927B0109C0803C09F4A6CF883CAD
:100ED00009F4A3CF883B09F07DCFE0919C0181E02C
:100EE0008E0F80939C01F0E0E558FE4F8081809347
:100EF000BB0090919C0180919B0129C08091F401DD
:100F00008093BB0085EC8093BC0064CF9091160267
:100F100080911502981758F5E091160281E08E0F26
:100F200080931602F0E0EB50FE4F8081E9CFE09114
:100F3000160281E08E0F809316028091BB00F0E0D4
:100F4000EB50FE4F80839091160280911502981706
:100F5000C8F285E8D8CFE091160281E08E0F809329
:100F600016028091BB00F0E0EB50FE4F8083809131
:100F7000180281115CCF81E08093F30184EA8093B1
:100F8000BC001092190226CF85EC8093BC00109211
:100F900019028091BD01803230F4E091BD01F0E092
:100FA000E356FE4F10826091BD0170E0E091CD01EB
:100FB000F091CE018DE991E009951092BD010ACF23
:100FC0001092170234CFE3E4F2E01382128288EE2B
:100FD00093E0A0E0B0E084839583A683B78385E1A6
:100FE00091E091838083EFE4F2E01382128287E242
:100FF00091E091838083118687E2848380E18287F8
:1010000082E0838714860895CF93DF93CDB7DEB750
:1010100029970FB6F894DEBF0FBECDBF789484B584
:10102000826084BD84B5816084BD85B5826085BDE4
:1010300085B5816085BD80916E00816080936E0072
:101040001092810080918100826080938100809164
:101050008100816080938100809180008160809315
:1010600080008091B10084608093B1008091B000D5
:1010700081608093B00080917A00846080937A00D0
:1010800080917A00826080937A0080917A008160FA
:1010900080937A0080917A00806880937A00109221
:1010A000C10062E088E00E94E50062E089E00E9401
:1010B000E50062E08AE00E94E50062E08BE00E94C9
:1010C000E50061E084E00E94E5000E94ED011092DD
:1010D000540280915A02823018F098E090935402A2
:1010E0008093570262E370E080E090E00E943B0151
:1010F00060915B028FE492E00E94DE0368EE73E091
:1011000080E090E00E943B0160E38FE492E00E9467
:1011100045050BE416E4C8010197F1F760E38FE49D
:1011200092E00E944505C8010197F1F760E38FE462
:1011300092E00E94450583E592E00197F1F760E2B5
:101140008FE492E00E94450560915402606240E0A5
:101150008FE492E00E945E0584E08093550240E0B7
:101160006CE08FE492E00E945E050E94A60582E09A
:101170008093560240E066E08FE492E00E945E05B4
:1011800040E062E08FE492E00E945E058BE39FE125
:101190000197F1F788E080935B0260E08FE492E0D2
:1011A0000E94DE030E94ED018091C2019091C30173
:1011B000009711F00E94360C86E090E00E949A0B96
:1011C0008C0188E6F801808383E492E09283818336
:1011D000138280E290E0958384831093C30100938F
:1011E000C2010E94ED01FF24F394F801F382C801CB
:1011F0000E94330319868091C2019091C301FC01C2
:1012000024813581232B89F02081F0921F022093C5
:101210004102109220021092420221E041E050E08F
:10122000BE01675F7F4F0E94150341E050E08E01D1
:101230000F5F1F4FB8018091C2019091C3010E94BE
:101240002004898190E0880F892F881F990B892BB2
:1012500009F469C088E391E00E949B01F82E83E3C2
:1012600091E00E949B01E82E8BE391E00E949B019C
:10127000D82E8EE391E00E949B01C82E81E491E07C
:101280000E949B01382F86E0F80111928A95E9F7B8
:101290002AE0832F622F0E943E0B982F880F890F20
:1012A000880F830F8A838C2D0E943E0B982F880F06
:1012B000890F880F8C0D8B838D2D0E943E0B982FEC
:1012C000880F890F880F8D0D8C838E2D0E943E0B09
:1012D000982F880F890F880F8E0D8E8382E18F8360
:1012E0008F2D0E943E0B982F880F890F880F8F0D2E
:1012F00088878091C2019091C301FC0124813581CE
:101300002830310580F0208131E030931F02209396
:101310004102109220021092420221E048E050E087
:10132000B8010E9415036CE3662E712C78E1C72E7C
:10133000D12CE0E02E2EE0E03E2E55245394FBE32A
:10134000AF2EB12CA7E18A2E912C1982E090C20118
:10135000F090C301F70184819581892BC1F08081D0
:1013600050921F028093410210922002109242027A
:1013700020E041E050E0B801C7010E941503882336
:1013800031F047E050E0B801C7010E9420044980D5
:10139000FA80EB8088E090E00E94F503882331F02A
:1013A0005092C101509202011092C0018091C1017E
:1013B000882309F4A2C00E94A60580E00E9475055A
:1013C00084E491E00E94350681E00E94750581E584
:1013D00091E00E94350680910201882321F086E584
:1013E00091E00E94350680910001909101010E94D8
:1013F0000C0688E591E00E9435068091020181117A
:1014000004C086E591E00E9435068091BE0190916E
:10141000BF010E940C0689E090E00E94F50388233A
:1014200081F0809102018823A1F1809100019091C7
:1014300001010196B6010E944A0B9093010180932D
:1014400000018AE090E00E94F503882379F0809102
:101450000201882381F1809100019091010101979F
:1014600097FD24C090930101809300018BE090E0F0
:101470000E94F503882331F080910201882361F1F5
:10148000109202012114310409F45FCF0E94000080
:101490005CCF8091BE019091BF010196B3010E9483
:1014A0004A0B9093BF018093BE01CBCF9092010174
:1014B00080920001DBCF8091BE019091BF01019726
:1014C00097FD05C09093BF018093BE01CFCFB0922E
:1014D000BF01A092BE01CACF1092C1015092C001BB
:1014E0000E94A6058FE591E00E94350668EE73E044
:1014F00080E090E00E943B01C5CF8E2D90E054E04B
:10150000959587955A95E1F7982F990F990F891B13
:10151000880FE80E80E00E9475058FE691E00E943A
:101520003506F9E0FE1520F082E491E00E943506D0
:101530008F2D90E044E0959587954A95E1F7982F97
:10154000990F990F891B880FF80E6E2D70E090E0AF
:1015500080E04AE00E94BE0584E591E00E943506E5
:1015600089E08F1520F082E491E00E943506242D59
:101570002F77822F90E034E0959587953A95E1F7A3
:10158000982F990F990F482E491A440C420E6F2D2F
:1015900070E090E080E04AE00E94BE0584E591E0C2
:1015A0000E943506E9E0E41520F082E491E00E9413
:1015B0003506642D70E090E080E04AE00E94BE05B0
:1015C00081E00E94750585E791E00E9435068091D3
:1015D0000001909101010A9724F482E491E00E94B5
:1015E000350680910001909101010E940C0684E56E
:1015F00091E00E9435068091BE019091BF010A974B
:1016000024F482E491E00E9435068091BE0190911D
:10161000BF010E940C068091C001882309F432CFDB
:101620008091000190910101E816190609F02ACF76
:101630008091BE019091BF01F816190609F022CFE2
:10164000411020CF8AE0E82EF12C61E084E00E9476
:10165000B70068EC70E080E090E00E943B0160E041
:1016600084E00E94B70068EC70E080E090E00E94A7
:101670003B01F1E0EF1AF10841F704CF991B79E043
:1016800004C0991F961708F0961B881F7A95C9F712
:101690008095089597FB072E16F4009407D077FDE8
:1016A00009D00E94800B07FC05D03EF490958195EF
:1016B0009F4F0895709561957F4F0895A1E21A2E6E
:1016C000AA1BBB1BFD010DC0AA1FBB1FEE1FFF1FE6
:1016D000A217B307E407F50720F0A21BB30BE40B36
:1016E000F50B661F771F881F991F1A9469F760957D
:1016F0007095809590959B01AC01BD01CF01089537
:10170000AA1BBB1B51E107C0AA1FBB1FA617B70727
:1017100010F0A61BB70B881F991F5A95A9F7809543
:101720009095BC01CD010895EE0FFF1F0590F49137
:10173000E02D09940F931F93CF93DF93823091058F
:1017400010F482E090E0E0915E02F0915F0230E000
:1017500020E0B0E0A0E0309799F42115310509F4BC
:101760004AC0281B390B24303105D8F58A819B816A
:101770006115710589F1FB0193838283FE0111C01C
:10178000408151810281138148175907E0F04817C1
:10179000590799F4109761F012960C9312971396CB
:1017A0001C933296CF01DF91CF911F910F91089535
:1017B00000935E0210935F02F4CF2115310551F0C2
:1017C0004217530738F0A901DB019A01BD01DF017F
:1017D000F801C1CFEF01F9CF90935F0280935E02D1
:1017E000CDCFFE01E20FF31F819391932250310977
:1017F00039832883D7CF20915C0230915D02232B5F
:1018000041F4209105013091060130935D0220934F
:101810005C0220910301309104012115310541F44E
:101820002DB73EB74091070150910801241B350B9D
:10183000E0915C02F0915D02E217F307A0F42E1B29
:101840003F0B2817390778F0AC014E5F5F4F241724
:10185000350748F04E0F5F1F50935D0240935C02C6
:10186000819391939FCFF0E0E0E09CCFCF93DF9303
:101870000097E9F0FC01329713821282A0915E0278
:10188000B0915F02ED0130E020E01097A1F42081DB
:101890003181820F931F20915C0230915D022817E5
:1018A000390709F061C0F0935D02E0935C02DF91BB
:1018B000CF910895EA01CE17DF07E8F54A815B81F1
:1018C0009E0141155105B1F7E901FB83EA83499176
:1018D0005991C40FD51FEC17FD0761F480819181E8
:1018E0000296840F951FE9019983888382819381F1
:1018F0009B838A83F0E0E0E012968D919C91139790
:101900000097B9F52D913C911197CD010296820F68
:10191000931F20915C0230915D022817390739F638
:10192000309751F510925F0210925E02B0935D0203
:10193000A0935C02BCCFD383C28340815181840FCA
:10194000951FC817D90761F44E5F5F4F8881998151
:10195000480F591F518340838A819B8193838283DF
:101960002115310509F0B0CFF0935F02E0935E02DC
:101970009ECFFD01DC01C0CF13821282D7CFF89435
:10198000FFCF06000100006002800000004000144C
:1019900000540000000000AF038203F20358037BF1
:1019A000036803590300000000B8056D01F2039AB3
:1019B0000144656320313920323032350032313A0A
:1019C00035383A3530005345542042414F20544871
:1019D00055430047494F3A003E0020504855543A7D
:1019E000004441204C55552042414F205448554316
:0C19F0000054494D452000414C200000EF
:107E0000112484B714BE81FFF0D085E080938100F7
:107E100082E08093C00088E18093C10086E0809377
:107E2000C20080E18093C4008EE0C9D0259A86E02C
:107E300020E33CEF91E0309385002093840096BBD3
:107E4000B09BFECF1D9AA8958150A9F7CC24DD24C4
:107E500088248394B5E0AB2EA1E19A2EF3E0BF2EE7
:107E6000A2D0813461F49FD0082FAFD0023811F036
:107E7000013811F484E001C083E08DD089C08234E0
:107E800011F484E103C0853419F485E0A6D080C0E4
:107E9000853579F488D0E82EFF2485D0082F10E0AE
:107EA000102F00270E291F29000F111F8ED06801E7
:107EB0006FC0863521F484E090D080E0DECF843638
:107EC00009F040C070D06FD0082F6DD080E0C81688
:107ED00080E7D80618F4F601B7BEE895C0E0D1E017
:107EE00062D089930C17E1F7F0E0CF16F0E7DF06D8
:107EF00018F0F601B7BEE89568D007B600FCFDCFD4
:107F0000A601A0E0B1E02C9130E011968C91119780
:107F100090E0982F8827822B932B1296FA010C0160
:107F200087BEE89511244E5F5F4FF1E0A038BF0790
:107F300051F7F601A7BEE89507B600FCFDCF97BE46
:107F4000E89526C08437B1F42ED02DD0F82E2BD052
:107F50003CD0F601EF2C8F010F5F1F4F84911BD097
:107F6000EA94F801C1F70894C11CD11CFA94CF0C13
:107F7000D11C0EC0853739F428D08EE10CD085E9AC
:107F80000AD08FE07ACF813511F488E018D01DD067
:107F900080E101D065CF982F8091C00085FFFCCF94
:107FA0009093C60008958091C00087FFFCCF809118
:107FB000C00084FD01C0A8958091C6000895E0E648
:107FC000F0E098E1908380830895EDDF803219F02E
:107FD00088E0F5DFFFCF84E1DECF1F93182FE3DFCA
:107FE0001150E9F7F2DF1F91089580E0E8DFEE27F6
:047FF000FF270994CA
:027FFE00040479
:00000001FF
