:020000040000FA
:100000000C9462000C948A000C948A000C948A0070
:100010000C948A000C948A000C948A000C948A0038
:100020000C948A000C948A000C948A000C948A0028
:100030000C948A000C948A000C948A000C948A0018
:100040000C94F2020C948A000C9462030C943C030E
:100050000C948A000C948A000C948A000C948A00F8
:100060000C948A000C948A000000000024002700F1
:100070002A0000000000250028002B0000000000DE
:1000800023002600290004040404040404040202DA
:100090000202020203030303030301020408102007
:1000A0004080010204081020010204081020000012
:1000B0000008000201000003040700000000000027
:1000C0000000940311241FBECFEFD8E0DEBFCDBFE8
:1000D00011E0A0E0B1E0E6E6F0E102C005900D928B
:1000E000A432B107D9F721E0A4E2B1E001C01D922A
:1000F000AF3DB207E1F710E0C2E6D0E004C02197BF
:10010000FE010E942B08C136D107C9F70E94C40323
:100110000C9431080C940000833081F028F4813075
:1001200099F08230A9F008958730A9F08830C9F09D
:100130008430B1F4809180008F7D03C08091800075
:100140008F7780938000089584B58F7784BD08955C
:1001500084B58F7DFBCF8091B0008F778093B00006
:1001600008958091B0008F7DF9CFCF93DF93282F32
:1001700030E0F901E255FF4F8491F901E656FF4F57
:10018000D491F901EA57FF4FC491CC23A1F081111A
:100190000E948C00EC2FF0E0EE0FFF1FE458FF4FA1
:1001A000A591B491EC91ED2381E090E009F480E019
:1001B000DF91CF91089580E090E0FACF1F93CF9325
:1001C000DF93282F30E0F901E255FF4F8491F901C8
:1001D000E656FF4FD491F901EA57FF4FC491CC2363
:1001E000A9F0162F81110E948C00EC2FF0E0EE0F89
:1001F000FF1FEE58FF4FA591B4918FB7F894EC9183
:10020000111108C0D095DE23DC938FBFDF91CF9111
:100210001F910895DE2BF8CFCF93DF9390E0FC0180
:10022000E656FF4F24918A579F4FFC018491882303
:10023000D1F090E0880F991FFC01E859FF4FA5917C
:10024000B491FC01EE58FF4FC591D49161110EC0DD
:100250009FB7F8948C91E22FE0958E238C932881A0
:10026000E223E8839FBFDF91CF9108958FB7F89481
:10027000EC91E22BEC938FBFF6CF3FB7F8948091CF
:10028000290190912A01A0912B01B0912C0126B552
:10029000A89B05C02F3F19F00196A11DB11D3FBFBE
:1002A000BA2FA92F982F8827BC01CD01620F711D8D
:1002B000811D911D42E0660F771F881F991F4A9587
:1002C000D1F708958F929F92AF92BF92CF92DF9213
:1002D000EF92FF924B015C010E943D016B017C019A
:1002E0000E943D016C197D098E099F09683E73408B
:1002F00081059105A8F321E0821A9108A108B108AF
:1003000088EEC80E83E0D81EE11CF11C8114910414
:10031000A104B10429F7FF90EF90DF90CF90BF9038
:10032000AF909F908F900895AF92BF92CF92DF923F
:10033000EF92FF920F931F93CF93DF936C017B019A
:100340008B01040F151FEB015E01AE18BF08C0172B
:10035000D10759F06991D601ED91FC910190F0819E
:10036000E02DC6010995892B79F7C501DF91CF9161
:100370001F910F91FF90EF90DF90CF90BF90AF90C3
:100380000895FC01538D448D252F30E0842F90E09B
:10039000821B930B541710F0CF9608950197089580
:1003A000FC01918D828D981761F0A28DAE0FBF2F49
:1003B000B11D5D968C91928D9F5F9F73928F90E09F
:1003C00008958FEF9FEF0895FC01918D828D98170E
:1003D00031F0828DE80FF11D858D90E008958FEF4B
:1003E0009FEF0895FC01918D228D892F90E0805C14
:1003F0009F4F821B91098F73992708958DE291E099
:100400000E94F20121E0892B09F420E0822F089557
:1004100080E090E0892B29F00E94FE0181110C946C
:1004200000000895FC01A48DA80FB92FB11DA35A97
:10043000BF4F2C91848D90E001968F739927848F04
:10044000A689B7892C93A089B1898C918370806427
:100450008C93938D848D981306C00288F389E02DC8
:1004600080818F7D80830895EF92FF920F931F9379
:10047000CF93DF93EC0181E0888F9B8D8C8D981357
:100480001AC0E889F989808185FF15C09FB7F89463
:10049000EE89FF896083E889F989808183708064AF
:1004A00080839FBF81E090E0DF91CF911F910F91FA
:1004B000FF90EF900895F62E0B8D10E00F5F1F4F09
:1004C0000F731127E02E8C8D8E110CC00FB607FC18
:1004D000FACFE889F989808185FFF5CFCE010E94A6
:1004E0001202F1CFEB8DEC0FFD2FF11DE35AFF4F00
:1004F000F0829FB7F8940B8FEA89FB898081806234
:10050000CFCFCF93DF93EC01888D8823B9F0AA89F0
:10051000BB89E889F9898C9185FD03C0808186FDBE
:100520000DC00FB607FCF7CF8C9185FFF2CF80810D
:1005300085FFEDCFCE010E941202E9CFDF91CF916E
:100540000895FC0101900020E9F73197AF01481BA5
:10055000590BBC018DE291E00C9494018F929F9213
:10056000AF92BF920F931F93CF93DF93CDB7DEB7B8
:10057000A1970FB6F894DEBF0FBECDBF19A24230CF
:1005800008F44AE08E010F5D1F4F842E912CB12C90
:10059000A12CA50194010E940908E62FB901CA0106
:1005A000EA30F4F4E05DD801EE938D01232B242B87
:1005B000252B79F790E080E0109719F0CD010E948B
:1005C000A102A1960FB6F894DEBF0FBECDBFDF919A
:1005D000CF911F910F91BF90AF909F908F900895F2
:1005E000E95CE1CF1F920F920FB60F9211242F9367
:1005F0003F938F939F93AF93BF93809125019091E9
:100600002601A0912701B09128013091240123E017
:10061000230F2D3758F50196A11DB11D20932401FC
:100620008093250190932601A0932701B093280180
:100630008091290190912A01A0912B01B0912C0168
:100640000196A11DB11D8093290190932A01A093C9
:100650002B01B0932C01BF91AF919F918F913F914E
:100660002F910F900FBE0F901F90189526E8230F23
:100670000296A11DB11DD2CF1F920F920FB60F92FD
:1006800011242F933F934F935F936F937F938F9397
:100690009F93AF93BF93EF93FF938DE291E00E94FE
:1006A0001202FF91EF91BF91AF919F918F917F9136
:1006B0006F915F914F913F912F910F900FBE0F90CF
:1006C0001F9018951F920F920FB60F9211242F931F
:1006D0008F939F93EF93FF93E0913D01F0913E0143
:1006E0008081E0914301F091440182FD1BC0908123
:1006F000809146018F5F8F7320914701821741F0EF
:10070000E0914601F0E0E35DFE4F958F8093460156
:10071000FF91EF919F918F912F910F900FBE0F90AE
:100720001F9018958081F4CFEDE2F1E013821282E0
:1007300088EE93E0A0E0B0E084839583A683B7833E
:1007400084E091E09183808385EC90E095878487B5
:1007500084EC90E09787868780EC90E0918B808B8B
:1007600081EC90E0938B828B82EC90E0958B848B74
:1007700086EC90E0978B868B118E128E138E148EE2
:100780008DE08093CA010895789484B5826084BD19
:1007900084B5816084BD85B5826085BD85B5816085
:1007A00085BD80916E00816080936E001092810003
:1007B00080918100826080938100809181008160BE
:1007C000809381008091800081608093800080917F
:1007D000B10084608093B1008091B000816080930B
:1007E000B00080917A00846080937A0080917A00D2
:1007F000826080937A0080917A00816080937A0091
:1008000080917A00806880937A001092C100E09114
:100810003D01F0913E0182E08083E0913901F09149
:100820003A011082E0913B01F0913C018FEC808312
:1008300010924501E0914101F091420186E08083F0
:10084000E0913F01F0914001808180618083E091DF
:100850003F01F0914001808188608083E0913F01F9
:10086000F0914001808180688083E0913F01F091A8
:10087000400180818F7D80838091CA0187FD10C0F7
:100880001092D1011092D2011092D3011092D40192
:1008900060E00E940C0161E08091CA010E94DE00CC
:1008A0000BE311E09FEC292E91E0392E23E7E22E95
:1008B000F12C30E0C32E30E0D32E1092CF011092F5
:1008C000CE011092CD011092CC011092CB0161E0CB
:1008D0008091CA010E94DE006AEF70E080E090E043
:1008E0000E94620161E08091CA010E940C0160E0F7
:1008F0008091CA010E94DE0062E170E080E090E039
:100900000E946201F89461E08091CA010E94DE00B9
:100910008BE990E00197F1F760E08091CA010E94B5
:100920000C018091CA010E94B500892B09F037C0E3
:10093000C8010197F1F78091CA010E94B5000197A3
:1009400071F5C8010197F1F7CAECD1E087E0A82E54
:10095000B12C8091CA010E94B500892BD1F3C70147
:100960000197F1F78091CA010E94B500813091058D
:1009700041F40A2C01C0880F0A94EAF79981892B67
:1009800089838091CA010E94B5000197D1F381E06B
:10099000A81AB108F0F621962C163D06B9F67894FF
:1009A000C091CB01D091CD016091CE018091CC015D
:1009B0008C0F8D0F860F8093D0019091CF018913FA
:1009C0005EC070E090E080E00E94E00620E030E051
:1009D00040E251E40E943F064B015C016D2F70E044
:1009E00090E080E00E94E2069B01AC01C501B401E9
:1009F0000E94CE054B015C018092D7019092D801F4
:100A0000A092D901B092DA0120E030E040E151E457
:100A10000E94970720E030E040EA50E40E943F0641
:100A200020E030E040E052E40E94CE056093DB011C
:100A30007093DC018093DD019093DE018C2F90E0B8
:100A40009093D6018093D501A5019401C501B4010D
:100A50000E940408882329F182E191E00E94A1020A
:100A60008EE191E00E94A1026C2F70E090E080E0A6
:100A70004AE00E94AE0280E291E00E94A10260ED95
:100A800077E080E090E00E946201C114D10409F493
:100A900014CF0E94FE01882309F40FCF0E940000AA
:100AA0000CCF2FEF3FEF4FE75FE7C501B4010E9486
:100AB000040881110DC02FEF3FEF4FE75FE7C5013D
:100AC000B4010E943A0618161CF486E191E0C6CFE4
:100AD0002FEF3FEF4FE75FE4C501B4010E9492079B
:100AE00018161CF48AE191E0B9CF2FEF3FEF4FE7E2
:100AF0005FECC501B4010E943A0687FDF3CF2AE0FE
:100B000037ED43EA5BE3C501B4010E94CE052B013A
:100B10003C010E94B1064B015C010E94E0069B0172
:100B2000AC01C301B2010E94CD052B013C014AE09A
:100B3000C501B4010E94AE026EE28DE291E00E9416
:100B4000340220E030E040E251E4C301B2010E94EF
:100B500097072B013C010E94B1064B01B12CA12C3F
:100B60004AE0C501B4010E94AE02C501B4010E9471
:100B7000E0069B01AC01C301B2010E94CD0520E05B
:100B800030E040E251E40E9497070E94B10690E0F5
:100B900080E04AE00E94AE0263CF5058BB27AA27EC
:100BA0000E94E5050C9458070E944A0738F00E94FD
:100BB000510720F039F49F3F19F426F40C944707AD
:100BC0000EF4E095E7FB0C944107E92F0E946907BA
:100BD00058F3BA17620773078407950720F079F472
:100BE000A6F50C948B070EF4E0950B2EBA2FA02DD2
:100BF0000B01B90190010C01CA01A0011124FF27CA
:100C0000591B99F0593F50F4503E68F11A16F040C4
:100C1000A22F232F342F4427585FF3CF46953795C3
:100C20002795A795F0405395C9F77EF41F16BA0B88
:100C3000620B730B840BBAF09150A1F0FF0FBB1F36
:100C4000661F771F881FC2F70EC0BA0F621F731F7F
:100C5000841F48F4879577956795B795F7959E3FDC
:100C600008F0B0CF9395880F08F09927EE0F97956D
:100C7000879508950E941D0708F481E008950E9459
:100C800053060C9458070E94510758F00E944A07D7
:100C900040F029F45F3F29F00C94410751110C9466
:100CA0008C070C9447070E94690768F39923B1F3F6
:100CB000552391F3951B550BBB27AA276217730782
:100CC000840738F09F5F5F4F220F331F441FAA1F16
:100CD000A9F335D00E2E3AF0E0E832D091505040D2
:100CE000E695001CCAF72BD0FE2F29D0660F771F80
:100CF000881FBB1F261737074807AB07B0E809F066
:100D0000BB0B802DBF01FF2793585F4F3AF09E3FEA
:100D1000510578F00C9441070C948C075F3FE4F385
:100D2000983ED4F3869577956795B795F7959F5F2D
:100D3000C9F7880F911D9695879597F90895E1E079
:100D4000660F771F881FBB1F621773078407BA07D8
:100D500020F0621B730B840BBA0BEE1F88F7E09533
:100D600008950E94710788F09F5798F0B92F99272E
:100D7000B751B0F0E1F0660F771F881F991F1AF086
:100D8000BA95C9F714C0B13091F00E948B07B1E059
:100D900008950C948B07672F782F8827B85F39F058
:100DA000B93FCCF3869577956795B395D9F73EF41F
:100DB00090958095709561957F4F8F4F9F4F0895C7
:100DC000E89409C097FB3EF49095809570956195E5
:100DD0007F4F8F4F9F4F9923A9F0F92F96E9BB279B
:100DE0009395F695879577956795B795F111F8CF17
:100DF000FAF4BB0F11F460FF1BC06F5F7F4F8F4F82
:100E00009F4F16C0882311F096E911C0772321F077
:100E10009EE8872F762F05C0662371F096E8862F0F
:100E200070E060E02AF09A95660F771F881FDAF766
:100E3000880F9695879597F90895990F0008550F93
:100E4000AA0BE0E8FEEF16161706E807F907C0F050
:100E500012161306E407F50798F0621B730B840B58
:100E6000950B39F40A2661F0232B242B252B21F432
:100E700008950A2609F4A140A6958FEF811D811DD2
:100E8000089597F99F6780E870E060E008959FEF0C
:100E900080EC089500240A94161617061806090611
:100EA000089500240A9412161306140605060895E0
:100EB000092E0394000C11F4882352F0BB0F40F468
:100EC000BF2B11F460FF04C06F5F7F4F8F4F9F4FA8
:100ED000089557FD9058440F551F59F05F3F71F02A
:100EE0004795880F97FB991F61F09F3F79F0879591
:100EF0000895121613061406551FF2CF4695F1DF1A
:100F000008C0161617061806991FF1CF86957105A9
:100F1000610508940895E894BB2766277727CB01DD
:100F200097F908950E941D0708F48FEF08950E9415
:100F3000AA070C9458070E944A0738F00E945107EC
:100F400020F0952311F00C9441070C9447071124CD
:100F50000C948C070E94690770F3959FC1F3950F5D
:100F600050E0551F629FF001729FBB27F00DB11D2D
:100F7000639FAA27F00DB11DAA1F649F6627B00DBD
:100F8000A11D661F829F2227B00DA11D621F739FA6
:100F9000B00DA11D621F839FA00D611D221F749FB4
:100FA0003327A00D611D231F849F600D211D822FFB
:100FB000762F6A2F11249F5750409AF0F1F0882322
:100FC0004AF0EE0FFF1FBB1F661F771F881F91504F
:100FD0005040A9F79E3F510580F00C9441070C94B6
:100FE0008C075F3FE4F3983ED4F386957795679539
:100FF000B795F795E7959F5FC1F7FE2B880F911D79
:101000009695879597F908950E941D07880B990B6F
:101010000895A1E21A2EAA1BBB1BFD010DC0AA1F39
:10102000BB1FEE1FFF1FA217B307E407F50720F051
:10103000A21BB30BE40BF50B661F771F881F991FCC
:101040001A9469F760957095809590959B01AC0115
:10105000BD01CF010895EE0FFF1F0590F491E02D23
:101060000994F894FFCF0000000034029401C101FC
:101070008102F201D001E4016E616E00696E6600CA
:0A1080006F7666002C000D0A0000D8
:107E0000112484B714BE81FFF0D085E080938100F7
:107E100082E08093C00088E18093C10086E0809377
:107E2000C20080E18093C4008EE0C9D0259A86E02C
:107E300020E33CEF91E0309385002093840096BBD3
:107E4000B09BFECF1D9AA8958150A9F7CC24DD24C4
:107E500088248394B5E0AB2EA1E19A2EF3E0BF2EE7
:107E6000A2D0813461F49FD0082FAFD0023811F036
:107E7000013811F484E001C083E08DD089C08234E0
:107E800011F484E103C0853419F485E0A6D080C0E4
:107E9000853579F488D0E82EFF2485D0082F10E0AE
:107EA000102F00270E291F29000F111F8ED06801E7
:107EB0006FC0863521F484E090D080E0DECF843638
:107EC00009F040C070D06FD0082F6DD080E0C81688
:107ED00080E7D80618F4F601B7BEE895C0E0D1E017
:107EE00062D089930C17E1F7F0E0CF16F0E7DF06D8
:107EF00018F0F601B7BEE89568D007B600FCFDCFD4
:107F0000A601A0E0B1E02C9130E011968C91119780
:107F100090E0982F8827822B932B1296FA010C0160
:107F200087BEE89511244E5F5F4FF1E0A038BF0790
:107F300051F7F601A7BEE89507B600FCFDCF97BE46
:107F4000E89526C08437B1F42ED02DD0F82E2BD052
:107F50003CD0F601EF2C8F010F5F1F4F84911BD097
:107F6000EA94F801C1F70894C11CD11CFA94CF0C13
:107F7000D11C0EC0853739F428D08EE10CD085E9AC
:107F80000AD08FE07ACF813511F488E018D01DD067
:107F900080E101D065CF982F8091C00085FFFCCF94
:107FA0009093C60008958091C00087FFFCCF809118
:107FB000C00084FD01C0A8958091C6000895E0E648
:107FC000F0E098E1908380830895EDDF803219F02E
:107FD00088E0F5DFFFCF84E1DECF1F93182FE3DFCA
:107FE0001150E9F7F2DF1F91089580E0E8DFEE27F6
:047FF000FF270994CA
:027FFE00040479
:00000001FF
